{
  "contractName": "Dollar",
  "abi": [
    {
      "inputs": [],
      "stateMutability": "nonpayable",
      "type": "constructor"
    },
    {
      "anonymous": false,
      "inputs": [
        {
          "indexed": true,
          "internalType": "address",
          "name": "owner",
          "type": "address"
        },
        {
          "indexed": true,
          "internalType": "address",
          "name": "spender",
          "type": "address"
        },
        {
          "indexed": false,
          "internalType": "uint256",
          "name": "value",
          "type": "uint256"
        }
      ],
      "name": "Approval",
      "type": "event"
    },
    {
      "anonymous": false,
      "inputs": [
        {
          "indexed": true,
          "internalType": "address",
          "name": "caller",
          "type": "address"
        },
        {
          "indexed": true,
          "internalType": "uint256",
          "name": "i",
          "type": "uint256"
        },
        {
          "indexed": true,
          "internalType": "uint256",
          "name": "k",
          "type": "uint256"
        },
        {
          "indexed": false,
          "internalType": "uint256",
          "name": "value",
          "type": "uint256"
        },
        {
          "indexed": false,
          "internalType": "uint256",
          "name": "gas",
          "type": "uint256"
        }
      ],
      "name": "Stub",
      "type": "event"
    },
    {
      "anonymous": false,
      "inputs": [
        {
          "indexed": true,
          "internalType": "address",
          "name": "from",
          "type": "address"
        },
        {
          "indexed": true,
          "internalType": "address",
          "name": "to",
          "type": "address"
        },
        {
          "indexed": false,
          "internalType": "uint256",
          "name": "value",
          "type": "uint256"
        }
      ],
      "name": "Transfer",
      "type": "event"
    },
    {
      "inputs": [
        {
          "internalType": "address",
          "name": "owner",
          "type": "address"
        },
        {
          "internalType": "address",
          "name": "spender",
          "type": "address"
        }
      ],
      "name": "allowance",
      "outputs": [
        {
          "internalType": "uint256",
          "name": "",
          "type": "uint256"
        }
      ],
      "stateMutability": "view",
      "type": "function"
    },
    {
      "inputs": [
        {
          "internalType": "address",
          "name": "spender",
          "type": "address"
        },
        {
          "internalType": "uint256",
          "name": "amount",
          "type": "uint256"
        }
      ],
      "name": "approve",
      "outputs": [
        {
          "internalType": "bool",
          "name": "",
          "type": "bool"
        }
      ],
      "stateMutability": "nonpayable",
      "type": "function"
    },
    {
      "inputs": [
        {
          "internalType": "address",
          "name": "account",
          "type": "address"
        }
      ],
      "name": "balanceOf",
      "outputs": [
        {
          "internalType": "uint256",
          "name": "",
          "type": "uint256"
        }
      ],
      "stateMutability": "view",
      "type": "function"
    },
    {
      "inputs": [],
      "name": "decimals",
      "outputs": [
        {
          "internalType": "uint8",
          "name": "",
          "type": "uint8"
        }
      ],
      "stateMutability": "view",
      "type": "function"
    },
    {
      "inputs": [
        {
          "internalType": "address",
          "name": "spender",
          "type": "address"
        },
        {
          "internalType": "uint256",
          "name": "subtractedValue",
          "type": "uint256"
        }
      ],
      "name": "decreaseAllowance",
      "outputs": [
        {
          "internalType": "bool",
          "name": "",
          "type": "bool"
        }
      ],
      "stateMutability": "nonpayable",
      "type": "function"
    },
    {
      "inputs": [
        {
          "internalType": "address",
          "name": "spender",
          "type": "address"
        },
        {
          "internalType": "uint256",
          "name": "addedValue",
          "type": "uint256"
        }
      ],
      "name": "increaseAllowance",
      "outputs": [
        {
          "internalType": "bool",
          "name": "",
          "type": "bool"
        }
      ],
      "stateMutability": "nonpayable",
      "type": "function"
    },
    {
      "inputs": [],
      "name": "name",
      "outputs": [
        {
          "internalType": "string",
          "name": "",
          "type": "string"
        }
      ],
      "stateMutability": "view",
      "type": "function"
    },
    {
      "inputs": [],
      "name": "symbol",
      "outputs": [
        {
          "internalType": "string",
          "name": "",
          "type": "string"
        }
      ],
      "stateMutability": "view",
      "type": "function"
    },
    {
      "inputs": [],
      "name": "totalSupply",
      "outputs": [
        {
          "internalType": "uint256",
          "name": "",
          "type": "uint256"
        }
      ],
      "stateMutability": "view",
      "type": "function"
    },
    {
      "inputs": [
        {
          "internalType": "address",
          "name": "to",
          "type": "address"
        },
        {
          "internalType": "uint256",
          "name": "amount",
          "type": "uint256"
        }
      ],
      "name": "transfer",
      "outputs": [
        {
          "internalType": "bool",
          "name": "",
          "type": "bool"
        }
      ],
      "stateMutability": "nonpayable",
      "type": "function"
    },
    {
      "inputs": [
        {
          "internalType": "address",
          "name": "from",
          "type": "address"
        },
        {
          "internalType": "address",
          "name": "to",
          "type": "address"
        },
        {
          "internalType": "uint256",
          "name": "amount",
          "type": "uint256"
        }
      ],
      "name": "transferFrom",
      "outputs": [
        {
          "internalType": "bool",
          "name": "",
          "type": "bool"
        }
      ],
      "stateMutability": "nonpayable",
      "type": "function"
    },
    {
      "inputs": [
        {
          "internalType": "bytes4",
          "name": "interfaceId",
          "type": "bytes4"
        }
      ],
      "name": "supportsInterface",
      "outputs": [
        {
          "internalType": "bool",
          "name": "",
          "type": "bool"
        }
      ],
      "stateMutability": "view",
      "type": "function"
    },
    {
      "inputs": [
        {
          "internalType": "uint256",
          "name": "i",
          "type": "uint256"
        },
        {
          "internalType": "uint256",
          "name": "k",
          "type": "uint256"
        }
      ],
      "name": "stub",
      "outputs": [
        {
          "internalType": "uint256",
          "name": "",
          "type": "uint256"
        }
      ],
      "stateMutability": "payable",
      "type": "function"
    },
    {
      "inputs": [],
      "name": "getLastDetails",
      "outputs": [
        {
          "internalType": "address",
          "name": "",
          "type": "address"
        },
        {
          "internalType": "uint256",
          "name": "",
          "type": "uint256"
        },
        {
          "internalType": "uint256",
          "name": "",
          "type": "uint256"
        }
      ],
      "stateMutability": "view",
      "type": "function"
    },
    {
      "inputs": [
        {
          "internalType": "bytes",
          "name": "data",
          "type": "bytes"
        }
      ],
      "name": "hash256",
      "outputs": [
        {
          "internalType": "bytes32",
          "name": "",
          "type": "bytes32"
        }
      ],
      "stateMutability": "pure",
      "type": "function"
    },
    {
      "inputs": [
        {
          "internalType": "bytes",
          "name": "data",
          "type": "bytes"
        }
      ],
      "name": "hash512",
      "outputs": [
        {
          "internalType": "bytes32",
          "name": "",
          "type": "bytes32"
        }
      ],
      "stateMutability": "pure",
      "type": "function"
    }
  ],
  "bytecode": "0x60806040523480156200001157600080fd5b506040518060400160405280600681526020017f446f6c6c617200000000000000000000000000000000000000000000000000008152506040518060400160405280600181526020017f240000000000000000000000000000000000000000000000000000000000000081525081600390805190602001906200009692919062000255565b508060049080519060200190620000af92919062000255565b505050620000cd3368056bc75e2d63100000620000d360201b60201c565b620004b0565b600073ffffffffffffffffffffffffffffffffffffffff168273ffffffffffffffffffffffffffffffffffffffff160362000145576040517f08c379a00000000000000000000000000000000000000000000000000000000081526004016200013c9062000366565b60405180910390fd5b62000159600083836200024b60201b60201c565b80600260008282546200016d9190620003c1565b92505081905550806000808473ffffffffffffffffffffffffffffffffffffffff1673ffffffffffffffffffffffffffffffffffffffff1681526020019081526020016000206000828254620001c49190620003c1565b925050819055508173ffffffffffffffffffffffffffffffffffffffff16600073ffffffffffffffffffffffffffffffffffffffff167fddf252ad1be2c89b69c2b068fc378daa952ba7f163c4a11628f55a4df523b3ef836040516200022b91906200042f565b60405180910390a362000247600083836200025060201b60201c565b5050565b505050565b505050565b82805462000263906200047b565b90600052602060002090601f016020900481019282620002875760008555620002d3565b82601f10620002a257805160ff1916838001178555620002d3565b82800160010185558215620002d3579182015b82811115620002d2578251825591602001919060010190620002b5565b5b509050620002e29190620002e6565b5090565b5b8082111562000301576000816000905550600101620002e7565b5090565b600082825260208201905092915050565b7f45524332303a206d696e7420746f20746865207a65726f206164647265737300600082015250565b60006200034e601f8362000305565b91506200035b8262000316565b602082019050919050565b6000602082019050818103600083015262000381816200033f565b9050919050565b6000819050919050565b7f4e487b7100000000000000000000000000000000000000000000000000000000600052601160045260246000fd5b6000620003ce8262000388565b9150620003db8362000388565b9250827fffffffffffffffffffffffffffffffffffffffffffffffffffffffffffffffff0382111562000413576200041262000392565b5b828201905092915050565b620004298162000388565b82525050565b60006020820190506200044660008301846200041e565b92915050565b7f4e487b7100000000000000000000000000000000000000000000000000000000600052602260045260246000fd5b600060028204905060018216806200049457607f821691505b602082108103620004aa57620004a96200044c565b5b50919050565b6118bf80620004c06000396000f3fe6080604052600436106100f35760003560e01c80635f19b2211161008a57806395d89b411161005957806395d89b4114610381578063a457c2d7146103ac578063a9059cbb146103e9578063dd62ed3e14610426576100f3565b80635f19b221146102aa57806370a08231146102e757806382c943981461032457806390d0293414610354576100f3565b806323b872dd116100c657806323b872dd146101c8578063313ce56714610205578063395093511461023057806339efb09a1461026d576100f3565b806301ffc9a7146100f857806306fdde0314610135578063095ea7b31461016057806318160ddd1461019d575b600080fd5b34801561010457600080fd5b5061011f600480360381019061011a9190610e72565b610463565b60405161012c9190610eba565b60405180910390f35b34801561014157600080fd5b5061014a6104cd565b6040516101579190610f6e565b60405180910390f35b34801561016c57600080fd5b5061018760048036038101906101829190611024565b61055f565b6040516101949190610eba565b60405180910390f35b3480156101a957600080fd5b506101b2610582565b6040516101bf9190611073565b60405180910390f35b3480156101d457600080fd5b506101ef60048036038101906101ea919061108e565b61058c565b6040516101fc9190610eba565b60405180910390f35b34801561021157600080fd5b5061021a6105bb565b60405161022791906110fd565b60405180910390f35b34801561023c57600080fd5b5061025760048036038101906102529190611024565b6105c4565b6040516102649190610eba565b60405180910390f35b34801561027957600080fd5b50610294600480360381019061028f919061117d565b6105fb565b6040516102a191906111e3565b60405180910390f35b3480156102b657600080fd5b506102d160048036038101906102cc919061117d565b61061d565b6040516102de91906111e3565b60405180910390f35b3480156102f357600080fd5b5061030e600480360381019061030991906111fe565b61063f565b60405161031b9190611073565b60405180910390f35b61033e6004803603810190610339919061122b565b610687565b60405161034b9190611073565b60405180910390f35b34801561036057600080fd5b5061036961073e565b6040516103789392919061127a565b60405180910390f35b34801561038d57600080fd5b50610396610777565b6040516103a39190610f6e565b60405180910390f35b3480156103b857600080fd5b506103d360048036038101906103ce9190611024565b610809565b6040516103e09190610eba565b60405180910390f35b3480156103f557600080fd5b50610410600480360381019061040b9190611024565b610880565b60405161041d9190610eba565b60405180910390f35b34801561043257600080fd5b5061044d600480360381019061044891906112b1565b6108a3565b60405161045a9190611073565b60405180910390f35b60007f36372b07000000000000000000000000000000000000000000000000000000007bffffffffffffffffffffffffffffffffffffffffffffffffffffffff1916827bffffffffffffffffffffffffffffffffffffffffffffffffffffffff1916149050919050565b6060600380546104dc90611320565b80601f016020809104026020016040519081016040528092919081815260200182805461050890611320565b80156105555780601f1061052a57610100808354040283529160200191610555565b820191906000526020600020905b81548152906001019060200180831161053857829003601f168201915b5050505050905090565b60008061056a61092a565b9050610577818585610932565b600191505092915050565b6000600254905090565b60008061059761092a565b90506105a4858285610afb565b6105af858585610b87565b60019150509392505050565b60006012905090565b6000806105cf61092a565b90506105f08185856105e185896108a3565b6105eb9190611380565b610932565b600191505092915050565b6000828260405161060d929190611415565b6040518091039020905092915050565b6000828260405161062f929190611415565b6040518091039020905092915050565b60008060008373ffffffffffffffffffffffffffffffffffffffff1673ffffffffffffffffffffffffffffffffffffffff168152602001908152602001600020549050919050565b600081833373ffffffffffffffffffffffffffffffffffffffff167f66ab302809fdb623ce51b7077ed70c918cf434f37f341105c37c56f05a3ad5cd345a6040516106d392919061142e565b60405180910390a433600560006101000a81548173ffffffffffffffffffffffffffffffffffffffff021916908373ffffffffffffffffffffffffffffffffffffffff160217905550826006819055508160078190555081836107369190611457565b905092915050565b6000806000600560009054906101000a900473ffffffffffffffffffffffffffffffffffffffff16600654600754925092509250909192565b60606004805461078690611320565b80601f01602080910402602001604051908101604052809291908181526020018280546107b290611320565b80156107ff5780601f106107d4576101008083540402835291602001916107ff565b820191906000526020600020905b8154815290600101906020018083116107e257829003601f168201915b5050505050905090565b60008061081461092a565b9050600061082282866108a3565b905083811015610867576040517f08c379a000000000000000000000000000000000000000000000000000000000815260040161085e90611523565b60405180910390fd5b6108748286868403610932565b60019250505092915050565b60008061088b61092a565b9050610898818585610b87565b600191505092915050565b6000600160008473ffffffffffffffffffffffffffffffffffffffff1673ffffffffffffffffffffffffffffffffffffffff16815260200190815260200160002060008373ffffffffffffffffffffffffffffffffffffffff1673ffffffffffffffffffffffffffffffffffffffff16815260200190815260200160002054905092915050565b600033905090565b600073ffffffffffffffffffffffffffffffffffffffff168373ffffffffffffffffffffffffffffffffffffffff16036109a1576040517f08c379a0000000000000000000000000000000000000000000000000000000008152600401610998906115b5565b60405180910390fd5b600073ffffffffffffffffffffffffffffffffffffffff168273ffffffffffffffffffffffffffffffffffffffff1603610a10576040517f08c379a0000000000000000000000000000000000000000000000000000000008152600401610a0790611647565b60405180910390fd5b80600160008573ffffffffffffffffffffffffffffffffffffffff1673ffffffffffffffffffffffffffffffffffffffff16815260200190815260200160002060008473ffffffffffffffffffffffffffffffffffffffff1673ffffffffffffffffffffffffffffffffffffffff168152602001908152602001600020819055508173ffffffffffffffffffffffffffffffffffffffff168373ffffffffffffffffffffffffffffffffffffffff167f8c5be1e5ebec7d5bd14f71427d1e84f3dd0314c0f7b2291e5b200ac8c7c3b92583604051610aee9190611073565b60405180910390a3505050565b6000610b0784846108a3565b90507fffffffffffffffffffffffffffffffffffffffffffffffffffffffffffffffff8114610b815781811015610b73576040517f08c379a0000000000000000000000000000000000000000000000000000000008152600401610b6a906116b3565b60405180910390fd5b610b808484848403610932565b5b50505050565b600073ffffffffffffffffffffffffffffffffffffffff168373ffffffffffffffffffffffffffffffffffffffff1603610bf6576040517f08c379a0000000000000000000000000000000000000000000000000000000008152600401610bed90611745565b60405180910390fd5b600073ffffffffffffffffffffffffffffffffffffffff168273ffffffffffffffffffffffffffffffffffffffff1603610c65576040517f08c379a0000000000000000000000000000000000000000000000000000000008152600401610c5c906117d7565b60405180910390fd5b610c70838383610e06565b60008060008573ffffffffffffffffffffffffffffffffffffffff1673ffffffffffffffffffffffffffffffffffffffff16815260200190815260200160002054905081811015610cf6576040517f08c379a0000000000000000000000000000000000000000000000000000000008152600401610ced90611869565b60405180910390fd5b8181036000808673ffffffffffffffffffffffffffffffffffffffff1673ffffffffffffffffffffffffffffffffffffffff16815260200190815260200160002081905550816000808573ffffffffffffffffffffffffffffffffffffffff1673ffffffffffffffffffffffffffffffffffffffff1681526020019081526020016000206000828254610d899190611380565b925050819055508273ffffffffffffffffffffffffffffffffffffffff168473ffffffffffffffffffffffffffffffffffffffff167fddf252ad1be2c89b69c2b068fc378daa952ba7f163c4a11628f55a4df523b3ef84604051610ded9190611073565b60405180910390a3610e00848484610e0b565b50505050565b505050565b505050565b600080fd5b600080fd5b60007fffffffff0000000000000000000000000000000000000000000000000000000082169050919050565b610e4f81610e1a565b8114610e5a57600080fd5b50565b600081359050610e6c81610e46565b92915050565b600060208284031215610e8857610e87610e10565b5b6000610e9684828501610e5d565b91505092915050565b60008115159050919050565b610eb481610e9f565b82525050565b6000602082019050610ecf6000830184610eab565b92915050565b600081519050919050565b600082825260208201905092915050565b60005b83811015610f0f578082015181840152602081019050610ef4565b83811115610f1e576000848401525b50505050565b6000601f19601f8301169050919050565b6000610f4082610ed5565b610f4a8185610ee0565b9350610f5a818560208601610ef1565b610f6381610f24565b840191505092915050565b60006020820190508181036000830152610f888184610f35565b905092915050565b600073ffffffffffffffffffffffffffffffffffffffff82169050919050565b6000610fbb82610f90565b9050919050565b610fcb81610fb0565b8114610fd657600080fd5b50565b600081359050610fe881610fc2565b92915050565b6000819050919050565b61100181610fee565b811461100c57600080fd5b50565b60008135905061101e81610ff8565b92915050565b6000806040838503121561103b5761103a610e10565b5b600061104985828601610fd9565b925050602061105a8582860161100f565b9150509250929050565b61106d81610fee565b82525050565b60006020820190506110886000830184611064565b92915050565b6000806000606084860312156110a7576110a6610e10565b5b60006110b586828701610fd9565b93505060206110c686828701610fd9565b92505060406110d78682870161100f565b9150509250925092565b600060ff82169050919050565b6110f7816110e1565b82525050565b600060208201905061111260008301846110ee565b92915050565b600080fd5b600080fd5b600080fd5b60008083601f84011261113d5761113c611118565b5b8235905067ffffffffffffffff81111561115a5761115961111d565b5b60208301915083600182028301111561117657611175611122565b5b9250929050565b6000806020838503121561119457611193610e10565b5b600083013567ffffffffffffffff8111156111b2576111b1610e15565b5b6111be85828601611127565b92509250509250929050565b6000819050919050565b6111dd816111ca565b82525050565b60006020820190506111f860008301846111d4565b92915050565b60006020828403121561121457611213610e10565b5b600061122284828501610fd9565b91505092915050565b6000806040838503121561124257611241610e10565b5b60006112508582860161100f565b92505060206112618582860161100f565b9150509250929050565b61127481610fb0565b82525050565b600060608201905061128f600083018661126b565b61129c6020830185611064565b6112a96040830184611064565b949350505050565b600080604083850312156112c8576112c7610e10565b5b60006112d685828601610fd9565b92505060206112e785828601610fd9565b9150509250929050565b7f4e487b7100000000000000000000000000000000000000000000000000000000600052602260045260246000fd5b6000600282049050600182168061133857607f821691505b60208210810361134b5761134a6112f1565b5b50919050565b7f4e487b7100000000000000000000000000000000000000000000000000000000600052601160045260246000fd5b600061138b82610fee565b915061139683610fee565b9250827fffffffffffffffffffffffffffffffffffffffffffffffffffffffffffffffff038211156113cb576113ca611351565b5b828201905092915050565b600081905092915050565b82818337600083830152505050565b60006113fc83856113d6565b93506114098385846113e1565b82840190509392505050565b60006114228284866113f0565b91508190509392505050565b60006040820190506114436000830185611064565b6114506020830184611064565b9392505050565b600061146282610fee565b915061146d83610fee565b9250817fffffffffffffffffffffffffffffffffffffffffffffffffffffffffffffffff04831182151516156114a6576114a5611351565b5b828202905092915050565b7f45524332303a2064656372656173656420616c6c6f77616e63652062656c6f7760008201527f207a65726f000000000000000000000000000000000000000000000000000000602082015250565b600061150d602583610ee0565b9150611518826114b1565b604082019050919050565b6000602082019050818103600083015261153c81611500565b9050919050565b7f45524332303a20617070726f76652066726f6d20746865207a65726f2061646460008201527f7265737300000000000000000000000000000000000000000000000000000000602082015250565b600061159f602483610ee0565b91506115aa82611543565b604082019050919050565b600060208201905081810360008301526115ce81611592565b9050919050565b7f45524332303a20617070726f766520746f20746865207a65726f20616464726560008201527f7373000000000000000000000000000000000000000000000000000000000000602082015250565b6000611631602283610ee0565b915061163c826115d5565b604082019050919050565b6000602082019050818103600083015261166081611624565b9050919050565b7f45524332303a20696e73756666696369656e7420616c6c6f77616e6365000000600082015250565b600061169d601d83610ee0565b91506116a882611667565b602082019050919050565b600060208201905081810360008301526116cc81611690565b9050919050565b7f45524332303a207472616e736665722066726f6d20746865207a65726f20616460008201527f6472657373000000000000000000000000000000000000000000000000000000602082015250565b600061172f602583610ee0565b915061173a826116d3565b604082019050919050565b6000602082019050818103600083015261175e81611722565b9050919050565b7f45524332303a207472616e7366657220746f20746865207a65726f206164647260008201527f6573730000000000000000000000000000000000000000000000000000000000602082015250565b60006117c1602383610ee0565b91506117cc82611765565b604082019050919050565b600060208201905081810360008301526117f0816117b4565b9050919050565b7f45524332303a207472616e7366657220616d6f756e742065786365656473206260008201527f616c616e63650000000000000000000000000000000000000000000000000000602082015250565b6000611853602683610ee0565b915061185e826117f7565b604082019050919050565b6000602082019050818103600083015261188281611846565b905091905056fea2646970667358221220c5f7fdc522b5337d1514c748e5afb4cffdfde8b3d1c12bb4681432d4efdb9dc064736f6c634300080d0033",
  "immutableReferences": {},
  "source": "// SPDX-License-Identifier: Unlicense\npragma solidity ^0.8.1;\n\nimport \"@openzeppelin/contracts/token/ERC20/ERC20.sol\";\n\n/*\n    a test erc20 token with a bit of extra logic for testing various things\n*/\n\ncontract Dollar is ERC20 {\n    constructor() ERC20(\"Dollar\", \"$\") {\n        _mint(msg.sender, 100000000000000000000);\n    }\n\n    function supportsInterface(bytes4 interfaceId)\n        public\n        view\n        virtual\n        returns (bool)\n    {\n        return interfaceId == type(IERC20).interfaceId;\n    }\n\n    event Stub(\n        address indexed caller,\n        uint256 indexed i,\n        uint256 indexed k,\n        uint256 value,\n        uint256 gas\n    );\n\n    address lastCaller;\n    uint256 lastI;\n    uint256 lastK;\n\n    function stub(uint256 i, uint256 k) public payable returns (uint256) {\n        emit Stub(msg.sender, i, k, msg.value, gasleft());\n        // emit Stub(msg.sender, i, k, msg.value, 0);\n        lastCaller = msg.sender;\n        lastI = i;\n        lastK = k;\n\n        return i * k;\n    }\n\n    function getLastDetails()\n        public\n        view\n        returns (\n            address,\n            uint256,\n            uint256\n        )\n    {\n        return (lastCaller, lastI, lastK);\n    }\n\n    function hash256(bytes calldata data) public pure returns (bytes32) {\n        return keccak256(data);\n    }\n\n    // investigation\n    function hash512(bytes calldata data) public pure returns (bytes32) {\n        return keccak256(data);\n    }\n}\n",
  "sourcePath": "/media/william/TheBigLocalStora/Pauli_group/wallets/contracts/Dollar.sol",
  "compiler": {
    "name": "solc",
    "version": "0.8.13+commit.abaa5c0e.Emscripten.clang"
  },
  "schemaVersion": "3.4.7",
  "updatedAt": "2022-11-02T16:47:49.731Z",
  "networkType": "ethereum",
  "devdoc": {
    "kind": "dev",
    "methods": {
      "allowance(address,address)": {
        "details": "See {IERC20-allowance}."
      },
      "approve(address,uint256)": {
        "details": "See {IERC20-approve}. NOTE: If `amount` is the maximum `uint256`, the allowance is not updated on `transferFrom`. This is semantically equivalent to an infinite approval. Requirements: - `spender` cannot be the zero address."
      },
      "balanceOf(address)": {
        "details": "See {IERC20-balanceOf}."
      },
      "decimals()": {
        "details": "Returns the number of decimals used to get its user representation. For example, if `decimals` equals `2`, a balance of `505` tokens should be displayed to a user as `5.05` (`505 / 10 ** 2`). Tokens usually opt for a value of 18, imitating the relationship between Ether and Wei. This is the value {ERC20} uses, unless this function is overridden; NOTE: This information is only used for _display_ purposes: it in no way affects any of the arithmetic of the contract, including {IERC20-balanceOf} and {IERC20-transfer}."
      },
      "decreaseAllowance(address,uint256)": {
        "details": "Atomically decreases the allowance granted to `spender` by the caller. This is an alternative to {approve} that can be used as a mitigation for problems described in {IERC20-approve}. Emits an {Approval} event indicating the updated allowance. Requirements: - `spender` cannot be the zero address. - `spender` must have allowance for the caller of at least `subtractedValue`."
      },
      "increaseAllowance(address,uint256)": {
        "details": "Atomically increases the allowance granted to `spender` by the caller. This is an alternative to {approve} that can be used as a mitigation for problems described in {IERC20-approve}. Emits an {Approval} event indicating the updated allowance. Requirements: - `spender` cannot be the zero address."
      },
      "name()": {
        "details": "Returns the name of the token."
      },
      "symbol()": {
        "details": "Returns the symbol of the token, usually a shorter version of the name."
      },
      "totalSupply()": {
        "details": "See {IERC20-totalSupply}."
      },
      "transfer(address,uint256)": {
        "details": "See {IERC20-transfer}. Requirements: - `to` cannot be the zero address. - the caller must have a balance of at least `amount`."
      },
      "transferFrom(address,address,uint256)": {
        "details": "See {IERC20-transferFrom}. Emits an {Approval} event indicating the updated allowance. This is not required by the EIP. See the note at the beginning of {ERC20}. NOTE: Does not update the allowance if the current allowance is the maximum `uint256`. Requirements: - `from` and `to` cannot be the zero address. - `from` must have a balance of at least `amount`. - the caller must have allowance for ``from``'s tokens of at least `amount`."
      }
    },
    "version": 1
  },
  "userdoc": {
    "kind": "user",
    "methods": {},
    "version": 1
  }
}